:100000000C9434000C9451000C9451000C94510049
:100010000C9451000C9451000C9451000C9451001C
:100020000C9451000C9451000C9451000C9451000C
:100030000C9451000C9451000C9451000C945100FC
:100040000C9451000C9451000C9451000C945100EC
:100050000C9451000C9451000C9451000C945100DC
:100060000C9451000C94510011241FBECFEFD8E026
:10007000DEBFCDBF12E0A0E0B1E0EAE5F8E002C0EB
:1000800005900D92A431B107D9F713E0A4E1B2E0D5
:1000900001C01D92AF3DB107E1F70E9490030C949F
:1000A0002B040C9400008091EA019091EB01A09147
:1000B000EC01B091ED0182309105A105B10599F0F7
:1000C00083309105A105B105C1F00197A105B105E6
:1000D000F1F48CE19CE028EC30E0F9013197F1F784
:1000E0000197D9F708958CED95E028EC30E0F901FF
:1000F0003197F1F70197D9F7089584E893E028EC58
:1001000030E0F9013197F1F70197D9F7089581E0CF
:1001100090E00197F1F70895FC0107C08093C600B5
:100120008091C00085FFFCCF319680818823B1F794
:100130000895FC0180E002C011928F5F8617E0F302
:10014000089589E284B981E58CBD17B81AB808957D
:10015000289A8EBD0DB407FEFDCF28980895EF9222
:10016000FF920F931F93E0900602F0900702009118
:10017000040210910502802F8E290E94A800C70159
:10018000880F991F90930702809306021695079592
:100190001093050200930402012B79F48138910534
:1001A00060F080E190E0909307028093060288E07F
:1001B00090E090930502809304020E9453001F91E7
:1001C0000F91FF90EF9008950F931F93CF93DF93BC
:1001D000C0910202D091030200910002109101022D
:1001E000802F8C2B0E94A8000038110519F4109262
:1001F000FF0106C0C130D10519F481E08093FF01F1
:100200008091FF01882349F0CC0FDD1FD0930302BA
:10021000C0930202000F111F08C0D695C795D09356
:100220000302C093020216950795109301020093F2
:1002300000020E945300DF91CF911F910F9108950A
:10024000AF92BF92CF92DF92EF92FF920F931F93E4
:10025000C090FD01D090FE010091FB011091FC01C6
:10026000A090F901B090FA01E090F701F090F80148
:10027000802F8C298A298E290E94A800CC0CDD1C95
:10028000D092FE01C092FD01000F111F1093FC01DE
:100290000093FB01C501969587959093FA01809391
:1002A000F901F694E794F092F801E092F70121E861
:1002B000C216D104D0F0892BC1F481E090E0909374
:1002C000FE018093FD0182E090E09093FC01809319
:1002D000FB0180E890E09093FA018093F90180E4BB
:1002E00090E09093F8018093F7010E9453001F91D2
:1002F0000F91FF90EF90DF90CF90BF90AF90089557
:100300008091EE01823039F0833041F0813041F448
:100310000E94AF0008950E94E40008950E94200109
:1003200008958091EA019091EB01A091EC01B091C8
:10033000ED010196A11DB11D8093EA019093EB019F
:10034000A093EC01B093ED010497A105B10588F0ED
:1003500081E090E0A0E0B0E08093EA019093EB01AF
:10036000A093EC01B093ED018091EE018F5F80933B
:10037000EE018091EE01843078F081E090E0A0E021
:10038000B0E08093EA019093EB01A093EC01B0936D
:10039000ED0181E08093EE0108958091DE03880FE6
:1003A0008093DE034F9B03C081608093DE038091C6
:1003B000DE038770843011F40E949101089504C017
:1003C0000E94CD010E9480018091C00087FFF8CF7C
:1003D0008091C6000895EF92FF920F931F93CF93E1
:1003E000DF93EC018B017A010E94DF01982F8D30A1
:1003F00011F08A3049F48881882311F081E00CC023
:10040000C7010E948C0007C0F8018081C80FD11D70
:1004100098838F5F808380E0DF91CF911F910F9150
:10042000FF90EF9008959B01AC0164E0220F331F11
:10043000441F551F6A95D1F760E072E18AE790E0AA
:100440000E949503C901DA010197A109B109292F79
:100450003A2F4B2F55270196A11DB11D2093C500A2
:1004600081508093C4001092C00088E18093C10045
:1004700086E08093C200089580E091E00E948C00A5
:1004800008950F931F938C01CB010E948C00C8012B
:100490000E948C008AE391E00E948C001F910F91D2
:1004A0000895CF93DF93EC016091EF017091F0011B
:1004B0000E94D503009711F480E022C06091F10101
:1004C0007091F201CE010E94D503009711F481E0F2
:1004D00017C06091F3017091F401CE010E94D50321
:1004E000009711F482E00CC06091F5017091F60163
:1004F000CE010E94D503009711F085E001C083E092
:10050000DF91CF9108950F931F93DF93CF93CDB7D2
:10051000DEB7C456D0400FB6F894DEBF0FBECDBFD5
:100520008091EA019091EB018E010F5F1F4FB8019E
:100530004AE050E00E94DE03C8016DE371E00E94D2
:1005400041028091EE0190E0B8014AE050E00E9443
:10055000DE03C80165E471E00E9441028AE391E094
:100560000E948C00CC59DF4F0FB6F894DEBF0FBE4F
:10057000CDBFCF91DF911F910F9108950F931F93DE
:100580008C010E94B703982FF801808180538A3034
:1005900010F4943050F08EE491E00E948C0084E6D8
:1005A00091E00E948C0080E003C09093EE0181E016
:1005B0001F910F91089584E691E00E948C0089E7D5
:1005C00093E06DED73E044E651E00E94EB01882377
:1005D000B1F389E793E00E94BE022091DD03E9E7D1
:1005E000F3E090E002C011929F5F9217E0F3109247
:1005F000DD03882321F308950F931F938C010E943C
:10060000B703982FF801808180538A3010F494301A
:1006100050F08CE791E00E948C0081E991E00E940B
:100620008C0080E00DC0892F90E0A0E0B0E08093C6
:10063000EA019093EB01A093EC01B093ED0181E00E
:100640001F910F91089581E991E00E948C0084E14F
:1006500093E068E773E041E951E00E94EB018823F1
:10066000B1F384E193E00E94FC0220917803E4E17D
:10067000F3E090E002C011929F5F9217E0F31092B6
:100680007803882321F308950E945102813051F0AC
:10069000813028F0823049F0833069F409C00E942B
:1006A0003C020DC00E9483020AC00E94DB0207C008
:1006B0000E94230304C08CEB91E00E948C0088EA26
:1006C00091E00E948C00089560E875E280E090E07F
:1006D0000E94130283ED91E00E94440389E284B9F1
:1006E00081E58CBD17B81AB8089584E192E063E102
:1006F00073E048EA51E00E94EB01882381F084E135
:1007000092E00E94440390911303E4E1F2E080E060
:1007100002C011928F5F8917E0F3109213030895BE
:100720000E9464030E947503FDCFA1E21A2EAA1B4A
:10073000BB1BFD010DC0AA1FBB1FEE1FFF1FA21791
:10074000B307E407F50720F0A21BB30BE40BF50B8E
:10075000661F771F881F991F1A9469F76095709517
:10076000809590959B01AC01BD01CF010895FC01DE
:1007700088279927E89421912032E9F3293010F055
:100780002E30C8F32B3241F02D3239F4689404C076
:100790000E94FF03820F911D219120532A30C0F344
:1007A0001EF4909581959F4F0895FB01DC018D917A
:1007B000019080190110D9F3990B0895FB019F0155
:1007C000E8944230C4F04532B4F44A3029F497FB3F
:1007D0001EF4909581959F4F642F77270E941704F0
:1007E000805D8A330CF0895D8193CB010097A1F77E
:1007F00016F45DE251931082C9010C9407047AE06B
:10080000979F902D879F802D910D11240895DC01D5
:10081000FC01672F71917723E1F7329704C07C9137
:100820006D9370836291AE17BF07C8F30895AA1B3A
:10083000BB1B51E107C0AA1FBB1FA617B70710F0CB
:10084000A61BB70B881F991F5A95A9F780959095FD
:0A085000BC01CD010895F894FFCF1C
:10085A00436F6D6D616E64733A200D0A2D2D2D2044
:10086A0068656C700D0A2D2D2D20696E666F0D0A54
:10087A002D2D2D206566666563740D0A2D2D2D209C
:10088A0073706565640D0A0D0A000D0A00537065E0
:10089A0065643A20004566666563743A2000496ECD
:1008AA00636F727265637420656666656374210D91
:1008BA000A0D0A00456E74657220746865206566C3
:1008CA006665637428312D33293A2000496E636FB7
:1008DA007272656374207370656564210D0A0D0A6E
:1008EA0000456E746572207468652073706565646E
:1008FA0028312D33293A2000456E746572207468B8
:10090A006520636F6D6D616E643A2000496E636F96
:10091A00727265637420636F6D6D616E64210D0A76
:10092A000D0A0068656C7000696E666F0065666620
:10093A00656374007370656564000100000001D38B
:10094A0001D801DD01E4014000800002000100013C
:10095A0002000100080010003601000096000000A5
:04096A005A0000002F
:00000001FF
