:100000000C9434000C9451000C9451000C94530047
:100010000C9451000C9451000C9451000C9451001C
:100020000C9451000C9451000C9451000C9451000C
:100030000C9451000C9451000C9451000C945100FC
:100040000C9451000C9451000C9451000C945100EC
:100050000C9451000C9451000C9451000C945100DC
:100060000C9451000C94510011241FBECFEFD8E026
:10007000DEBFCDBF11E0A0E0B1E0E6E6F4E002C0F3
:1000800005900D92A031B107D9F711E0A0E1B1E0E0
:1000900001C01D92A631B107E1F70E9428020C941D
:1000A00031020C9400001F920F920FB60F92112490
:1000B0002F933F934F935F938F939F9320E030E074
:1000C00040EA5FE005C02F5F3F4FCA010197F1F79B
:1000D0001D9BF9CF87E0203D38073CF081E090E0A0
:1000E00090931201809311011BC0232BC9F08091C2
:1000F000130190911401892B79F481E090E09093A1
:1001000014018093130120EA3FE003C0C901019765
:10011000F1F71D99FBCF04C0109214011092130146
:100120009F918F915F914F913F912F910F900FBEB3
:100130000F901F9018959BB121E030E002C0220F74
:10014000331F8A95E2F7922B9BB940911101509190
:10015000120120E030E060EA7FE0CB010197F1F787
:100160004115510529F42F5F3F4F283C3105A9F770
:1001700008959BB121E030E002C0220F331F8A9521
:10018000E2F7209529232BB94091110150911201DA
:1001900020E030E060EA7FE0CB010197F1F7411504
:1001A000510529F42F5F3F4F283C3105A9F70895E9
:1001B000CF93DF93C0E0D1E08091110190911201C3
:1001C000892B41F4899199910E94B90081E0C03155
:1001D000D80791F7DF91CF910895CF93DF93C0E0D7
:1001E000D1E08091110190911201892B41F4899104
:1001F00099910E949B0081E0C031D80791F7DF916F
:10020000CF9108950F931F93CF93DF931BB801E015
:1002100010E08091110190911201892B49F0109208
:10022000120110921101DF91CF911F910F9108954A
:10023000C0E0D1E0888199810E949B0080911101EA
:1002400090911201892B29F72BB1C801088002C0B7
:10025000880F991F0A94E2F7809582238BB9229622
:1002600081E0C031D807A9F2E5CF0F931F93CF9358
:10027000DF938FEF8BB901E010E080911101909135
:100280001201892B49F01092120110921101DF9195
:10029000CF911F910F910895C0E0D1E0888199819D
:1002A0000E94B9008091110190911201892B29F7C8
:1002B0002BB1C801088002C0880F991F0A94E2F789
:1002C000282B2BB9229681E0C031D807B1F2E6CFB6
:1002D0001BB88091110190911201892B29F0109285
:1002E00012011092110108950E94ED000E94D800A1
:1002F000F0CF8FEF8AB9259880916B008062809350
:100300006B008091680081608093680078940E94FF
:1003100035010E9468010E940201F9CF81E08BB98A
:1003200020E030E061E070E040E951E0CB01022ED6
:1003300002C0880F991F0A94E2F78BB988E893E10D
:10034000FA013197F1F70197D9F72F5F3F4F283026
:10035000310561F71BB8089581E08BB9589A599A15
:1003600088EE93E020E931E0F9013197F1F7019748
:10037000D9F75898599880EA9FE020E931E0F901CF
:100380003197F1F70197D9F75A9A5B9A88EE93E083
:1003900020E931E0F9013197F1F70197D9F75A983F
:1003A0005B9880EA9FE020E931E0F9013197F1F7AD
:1003B0000197D9F75C9A5D9A88EE93E020E931E0E5
:1003C000F9013197F1F70197D9F75C985D9880EAC8
:1003D0009FE020E931E0F9013197F1F70197D9F772
:1003E0005E9A5F9A88EE93E020E931E0F901319757
:1003F000F1F70197D9F75E985F9880EA9FE020E9CE
:1004000031E0F9013197F1F70197D9F71BB8089559
:1004100080911501880F80931501199B03C081609D
:1004200080931501809115018770843081F480914B
:100430001001882331F40E948E0181E08093100125
:100440000895813021F40E94AC01109210010895AA
:1004500080E49CE90197F1F70E94790180E090E047
:060460000895F894FFCF9F
:10046600000001000200030004000500060007006A
:00000001FF
