:100000000C9434000C9451000C9451000C94510049
:100010000C9451000C9451000C9451000C9451001C
:100020000C9451000C9451000C9451000C9451000C
:100030000C9451000C9451000C9451000C945100FC
:100040000C9451000C9451000C9451000C945100EC
:100050000C9451000C9451000C9451000C945100DC
:100060000C9451000C94510011241FBECFEFD8E026
:10007000DEBFCDBF11E0A0E0B1E0E8E6FEE002C0E7
:1000800005900D92AE32B107D9F711E0AEE2B1E0C2
:1000900001C01D92A633B107E1F70E943F040C9402
:1000A00032070C94000087B18C7F87B98DE0982FC0
:1000B0009A95F1F7389A8A95F1F7399A0895389A0E
:1000C0008DE08A95F1F7399888E08A95F1F73898AC
:1000D00085E08A95F1F7089520E065E05AE04DE06B
:1000E000399A962F9A95F1F787FF02C0389801C088
:1000F000389A952F9A95F1F739983DE0942F9A9573
:10010000F1F72F5F283011F0880FEACF399A822F4C
:100110008A95F1F73898832F8A95F1F73998822FCD
:100120008A95F1F786B195E09A95F1F7399A932F70
:100130009A95F1F78170089520E030E04DE0330F9B
:10014000399A942F9A95F1F73998942F9A95F1F757
:10015000309931602F5F283091F7399A95E09A9560
:10016000F1F7882311F4389A01C0389888E08A950D
:10017000F1F739988DE0982F9A95F1F7399A8A9589
:10018000F1F7832F08951F93182F84600E946C004D
:1001900082E08A95F1F7812F8B7F0E946C008AE6BE
:1001A0008A95F1F71F910895FF920F931F93F82EF0
:1001B000162F107F062F0295007F442311F0116047
:1001C00001600E9453008F2D0E946C00812F0E94BD
:1001D0006C00812F0E94C300802F0E946C00802F32
:1001E0000E94C3000E945F0080E197E20197F1F74F
:1001F0001F910F91FF9008950F931F93082F80E098
:100200009DE70197F1F70E945300802F0E946C0038
:10021000882311F081E041C080E30E946C0080E3FC
:100220000E94C30080E197E20197F1F780E30E940A
:100230006C0080E30E94C3001DE0812F8A95F1F7D6
:1002400080E30E946C0080E30E94C3001A95F1F7DE
:1002500080E20E946C0080E20E94C30085E88A95DB
:10026000F1F70E945F00802F68E240E00E94D40016
:10027000802F68E040E00E94D400802F61E040E0E1
:100280000E94D400802F66E040E00E94D400802FBE
:100290006CE040E00E94D40080E01F910F9108952F
:1002A0004111605C606840E00E94D400089561E004
:1002B00040E00E94D40080E29EE40197F1F70895A7
:1002C000CF93DF93982F262FEA0182E4692F422FE4
:1002D0000E94500105C0219682E441E00E94D400B2
:1002E00068816623C1F7DF91CF9108950F931F9323
:1002F000182F062F0E945300812F0E946C00882324
:1003000021F00E945F0081E007C0802F80950E944D
:100310006C000E945F0080E01F910F910895809112
:100320002E0190912F01A0913001B09131018230C6
:100330009105A105B10599F083309105A105B1059D
:10034000C1F00197A105B105F1F48CE19CE028EC26
:1003500030E0F9013197F1F70197D9F708958CED65
:1003600095E028EC30E0F9013197F1F70197D9F7E2
:10037000089584E893E028EC30E0F9013197F1F733
:100380000197D9F7089581E090E00197F1F708957A
:10039000EF92FF920F931F9300912A0110912B016E
:1003A000E0902801F09029016E2D602B80E40E94DE
:1003B0007601C801880F991F90932B0180932A0121
:1003C000F694E794F0922901E0922801EF2879F45D
:1003D0008138910560F080E190E090932B0180934B
:1003E0002A0188E090E090932901809328010E94DF
:1003F0008F011F910F91FF90EF9008950F931F931E
:10040000CF93DF93C0912601D09127010091240161
:1004100010912501602F6C2B80E40E94760100383A
:10042000110519F41092230106C0C130D10519F449
:1004300081E08093230180912301882349F0CC0F30
:10044000DD1FD0932701C0932601000F111F08C0A4
:10045000D695C795D0932701C09326011695079589
:1004600010932501009324010E948F01DF91CF9109
:100470001F910F910895AF92BF92CF92DF92EF92AA
:10048000FF920F931F93C0902101D0902201009101
:100490001F0110912001A0901D01B0901E01E0905D
:1004A0001B01F0901C01602F6C296A296E2980E4E1
:1004B0000E947601CC0CDD1CD0922201C092210159
:1004C000000F111F1093200100931F01C501969585
:1004D000879590931E0180931D01F694E794F09206
:1004E0001C01E0921B0121E8C216D104D0F0892B37
:1004F000C1F481E090E0909322018093210182E099
:1005000090E09093200180931F0180E890E0909309
:100510001E0180931D0180E490E090931C01809364
:100520001B010E948F011F910F91FF90EF90DF90B0
:10053000CF90BF90AF90089580912E0190912F01A0
:10054000A0913001B09131010196A11DB11D8093A0
:100550002E0190932F01A0933001B09331010497A5
:10056000A105B10560F081E090E0A0E0B0E08093EB
:100570002E0190932F01A0933001B0933101089583
:10058000809132018F5F80933201843018F081E0D6
:1005900080933201089580912E0190912F01A091B6
:1005A0003001B09131010197A109B10980932E0169
:1005B00090932F01A0933001B09331010097A105D2
:1005C000B10561F483E090E0A0E0B0E080932E01FB
:1005D00090932F01A0933001B09331010895809141
:1005E0003501880F809335014D9B03C08160809356
:1005F0003501809135018770843019F580912E0185
:1006000090912F01A0913001B09131010196A11D6F
:10061000B11D80932E0190932F01A0933001B093D0
:1006200031010497A105B10560F081E090E0A0E000
:10063000B0E080932E0190932F01A0933001B093EE
:100640003101089580913401880F809334014E9BCD
:1006500003C08160809334018091340187708430BD
:1006600051F4809132018F5F80933201843018F011
:1006700081E080933201089580913301880F809347
:1006800033014F9B03C0816080933301809133011C
:100690008770843019F580912E0190912F01A091DF
:1006A0003001B09131010197A109B10980932E0168
:1006B00090932F01A0933001B09331010097A105D1
:1006C000B10561F483E090E0A0E0B0E080932E01FA
:1006D00090932F01A0933001B0933101089514B885
:1006E00017B81AB887B18C7F87B988B18C7F88B961
:1006F00082E40E94FC0080E060E040E051E00E9463
:10070000600180E061E04AE051E00E9460010895EC
:10071000CF92DF92EF92FF920F931F93DF93CF93CD
:10072000CDB7DEB7CDB6DEB690912D018091320106
:100730009817D9F1EEB68DB79EB744970FB6F894D7
:100740009EBF0FBE8DBF0DB71EB70F5F1F4F00D0EE
:1007500000D000D0EDB7FEB73196ADB7BEB7119659
:100760000C93118384E191E0938382838091320121
:10077000848315820E945A048DB79EB706960FB6E1
:10078000F8949EBF0FBE8DBF88E060E0A8010E9474
:1007900060018091320180932D012C2D3E2DC901E5
:1007A0000FB6F8949EBF0FBE8DBF80912C0190E0D4
:1007B000A0E0B0E020912E0130912F014091300156
:1007C0005091310182179307A407B50709F449C076
:1007D000FDB6EEB6ADB7BEB754970FB6F894BEBF30
:1007E0000FBEADBF0DB71EB70F5F1F4F8DB79EB7C2
:1007F00008970FB6F8949EBF0FBE8DBFEDB7FEB73A
:100800003196ADB7BEB711960C93118387E191E095
:100810009383828380912E0190912F01A0913001CA
:10082000B091310184839583A683B7830E945A04D3
:100830008DB79EB708960FB6F8949EBF0FBE8DBFBA
:1008400088E061E0A8010E94600180912E01809300
:100850002C012F2D3E2DC9010FB6F8949EBF0FBE5F
:100860008DBF0FB6F894DEBE0FBECDBECF91DF9127
:100870001F910F91FF90EF90DF90CF9008950E940D
:100880006F030E94EF020E9422030E943C038091AA
:100890003201823039F0833041F0813041F40E94DE
:1008A000C80105C00E94FE0102C00E943B020E94D6
:1008B0008803E7CFAEE0B0E0E0E6F4E00C9409078F
:1008C0000D891E8986E08C831A8309838FEF9FE749
:1008D0009E838D839E01275E3F4FCE0101966F89D7
:1008E000788DA9010E947E042F813885020F131F85
:1008F000F80110822E96E4E00C942507ABE0B0E0FE
:10090000E4E8F4E00C94FB063C012B015A01FC01E5
:1009100017821682838181FD03C06FEF7FEFC6C10E
:100920009AE0892E1E010894211C311CF3012381B9
:10093000F20123FD859123FF81912F01882309F482
:10094000B2C1853239F423FD859123FF81912F01B6
:10095000853229F490E0B3010E947106E7CF982F09
:10096000FF24EE249924FFE1FF15D0F09B3269F0BB
:100970009C3228F4903259F0933291F40EC09D329B
:1009800049F0903369F441E024C052E0F52A84E054
:10099000F82A28C098E0F92A25C0E0E1FE2A22C002
:1009A000F7FC29C0892F80538A3070F4F6FE05C009
:1009B000989C902C1124980E15C0E89CE02C1124D2
:1009C000E80EF0E2FF2A0EC09E3229F4F6FC6BC15D
:1009D00040E4F42A07C09C3619F450E8F52A02C016
:1009E000983649F4F20123FD959123FF91912F014F
:1009F000992309F0B8CF892F8554833018F080529D
:100A0000833038F444E050E0A40EB51E5FE3598310
:100A10000FC0933631F0933779F0933509F056C013
:100A200020C0F5018081898342E050E0A40EB51E0C
:100A3000610101E010E012C0F501C080D180F6FC38
:100A400003C06FEF7FEF02C0692D70E042E050E01D
:100A5000A40EB51EC6010E9466068C015FE7F52252
:100A600014C0F501C080D180F6FC03C06FEF7FEFAA
:100A700002C0692D70E042E050E0A40EB51EC60130
:100A80000E945B068C0150E8F52AF3FE07C01AC0ED
:100A900080E290E0B3010E947106EA948E2D90E00E
:100AA00008171907A8F30EC0F601F7FC8591F7FEA9
:100AB00081916F0190E0B3010E947106E110EA9408
:100AC000015010400115110579F7EAC0943611F074
:100AD000993669F5F7FE08C0F50120813181428120
:100AE000538184E090E00AC0F501808191819C01EE
:100AF000442737FD4095542F82E090E0A80EB91EA0
:100B00009FE6F92257FF09C05095409530952195F1
:100B10003F4F4F4F5F4FE0E8FE2ACA01B901A101E4
:100B20002AE030E00E949D06D82ED21840C09537AA
:100B300029F41F2D1F7E2AE030E01DC01F2D197FD4
:100B40009F3661F0903720F4983509F0ACC00FC0A3
:100B5000903739F0983709F0A6C004C028E030E09B
:100B60000AC0106114FD146020E130E004C014FDDF
:100B7000166020E132E017FF08C0F5016081718145
:100B80008281938144E050E008C0F5018081918129
:100B9000BC0180E090E042E050E0A40EB51EA1014F
:100BA0000E949D06D82ED2188FE7F82EF122F6FE6D
:100BB0000BC05EEFF522D91438F4F4FE07C0F2FC46
:100BC00005C08FEEF82202C01D2D01C0192DF4FEC4
:100BD0000DC0FE01ED0DF11D8081803319F499EEF9
:100BE000F92208C01F5FF2FE05C003C08F2D867872
:100BF00009F01F5F0F2DF3FC14C0F0FE0FC01E158F
:100C000010F09D2C0BC09D2C9E0C911A1E2D06C021
:100C100080E290E0B3010E9471061F5F1E15C0F3D1
:100C200004C01E1510F4E11A01C0EE2404FF0FC029
:100C300080E390E0B3010E94710602FF1DC001FD38
:100C400003C088E790E00EC088E590E00BC0802FDD
:100C5000867891F001FF02C08BE201C080E2F7FCD0
:100C60008DE290E0B3010E94710606C080E390E03F
:100C7000B3010E9471069A94D914C0F3DA94F10179
:100C8000ED0DF11D808190E0B3010E947106DD2021
:100C9000A9F706C080E290E0B3010E947106EA94D1
:100CA000EE20C1F743CEF30166817781CB012B960D
:100CB000E2E10C941707FC010590615070400110AF
:100CC000D8F7809590958E0F9F1F0895FC01615075
:100CD000704001900110D8F7809590958E0F9F1F5E
:100CE00008950F931F93CF93DF938C01EB018B81BA
:100CF00081FF1BC082FF0DC02E813F818C819D81B1
:100D00002817390764F4E881F9810193F983E883AE
:100D100006C0E885F985802F0995892B31F48E81ED
:100D20009F8101969F838E8302C00FEF1FEFC80142
:100D3000DF91CF911F910F910895FA01AA272830D2
:100D400051F1203181F1E8946F936E7F6E5F7F4F98
:100D50008F4F9F4FAF4FB1E03ED0B4E03CD0670F14
:100D6000781F891F9A1FA11D680F791F8A1F911D67
:100D7000A11D6A0F711D811D911DA11D20D009F4B7
:100D800068943F912AE0269F11243019305D3193F9
:100D9000DEF6CF010895462F4770405D4193B3E0E2
:100DA0000FD0C9F7F6CF462F4F70405D4A3318F089
:100DB000495D31FD4052419302D0A9F7EACFB4E03A
:100DC000A6959795879577956795BA95C9F70097F2
:100DD0006105710508959B01AC010A2E0694579593
:100DE000479537952795BA95C9F7620F731F841FEA
:100DF000951FA01D08952F923F924F925F926F9280
:100E00007F928F929F92AF92BF92CF92DF92EF929A
:100E1000FF920F931F93CF93DF93CDB7DEB7CA1B1B
:100E2000DB0B0FB6F894DEBF0FBECDBF09942A8846
:100E3000398848885F846E847D848C849B84AA84EE
:100E4000B984C884DF80EE80FD800C811B81AA817B
:100E5000B981CE0FD11D0FB6F894DEBF0FBECDBF46
:080E6000ED010895F894FFCFA5
:100E68004566666563743A20300053706565642092
:100E78003A203000256400256C64004000800002A0
:0E0E8800000100010200010008001000040437
:00000001FF
