:100000000C9434000C9449000C9449000C94490061
:100010000C9449000C9449000C9449000C9449003C
:100020000C9449000C9449000C9449000C9449002C
:100030000C9449000C9449000C9449000C9449001C
:100040000C9449000C9449000C9449000C9449000C
:100050000C9449000C9449000C9449000C944900FC
:100060000C9449000C94490011241FBECFEFD8E036
:10007000DEBFCDBF11E0A0E0B1E0E6E2F1E002C0FA
:1000800005900D92AA30B107D9F70E947D000C941B
:1000900091000C94000091E0833709F490E020E097
:1000A00035E0939FC001112480509F4FFC01E20F67
:1000B000F11D3081332301F12D9A3E3241F44FEF8F
:1000C00053EC39E0415050403040E1F707C04FEF6A
:1000D0005BE43DE1415050403040E1F700C000009A
:1000E0002D984FEF59E638E1415050403040E1F74C
:1000F00000C000002F5FDACF0895259A83E70E94A1
:100100004B008FE60E944B0083E70E944B002FEFCD
:1001100087EA91E6215080409040E1F700C000005E
:06012000EDCFF894FFCFC3
:0A0126002E2E2E00002D2D2D0000BE
:00000001FF
