:100000000C9434000C9451000C9451000C94510049
:100010000C9451000C9451000C9451000C9451001C
:100020000C9451000C9451000C9451000C9451000C
:100030000C9451000C9451000C9451000C945100FC
:100040000C9451000C9451000C9451000C945100EC
:100050000C9451000C9451000C9451000C945100DC
:100060000C9451000C94510011241FBECFEFD8E026
:10007000DEBFCDBF11E0A0E0B1E0EAE0F1E002C0F8
:1000800005900D92A231B107D9F711E0A2E1B1E0DC
:1000900001C01D92A431B107E1F70E945E000C94EB
:1000A00083000C94000084B1886284B981E58CBD22
:1000B00008958EBD0DB407FEFDCF089584B188620A
:1000C00084B981E58CBD209A2091120130911301F1
:1000D00040E951E0F901E050FF4F8081289A8EBD40
:1000E0000DB407FEFDCF289880ED97E0FA01319717
:1000F000F1F70197D9F72031310511F420E030E014
:0A0100002F5F3F4FE7CFF894FFCFC9
:10010A00003F065B4F666D7D077F6F777F393F79CA
:02011A00710072
:00000001FF
