:100000000C9434000C9446000C9446000C9446006A
:100010000C9446000C9446000C9446000C94460048
:100020000C9446000C9446000C9446000C94460038
:100030000C9446000C9446000C9446000C94460028
:100040000C9446000C9446000C9446000C94460018
:100050000C9446000C9446000C9446000C94460008
:100060000C9446000C94460011241FBECFEFD8E03C
:10007000DEBFCDBF11E0A0E0B1E001C01D92A23013
:10008000B107E1F70E9478000C94E7000C9400009F
:10009000FC0180910101880F80930101309B03C016
:1000A000816080930101809101018770843011F497
:1000B00081E080830895FC0180910001880F809386
:1000C0000001319B03C08160809300018091000199
:1000D0008770843009F4108208952A988EBD0DB47B
:1000E00007FEFDCF6EBD0DB407FEFDCF2A9A089521
:1000F0008F929F92AF92BF92CF92DF92EF92FF9238
:100100000F931F93DF93CF930F92CDB7DEB78CE29F
:1001100084B981E58CBD17B88FE060E00E946D0066
:1001200089E060E00E946D008BE067E00E946D0056
:100130008AE065E00E946D008CE061E00E946D0045
:1001400010E01F5F812F60E00E946D001830C9F73A
:10015000198241E0C42ED12C31E0E32EF12C5E0156
:100160000894A11CB11C20E9822E21E0922E2CC003
:10017000C5010E944800C5010E945B008981882357
:10018000B9F3802F6C2D0E946D0084EF91E0F40193
:100190003197F1F70197D9F70F5F1F4F093011051C
:1001A00038F38981882319F07601EE0CFF1C81E871
:1001B000E816F10410F4C70105C081E0E82EF12C27
:1001C00081E090E067017C0101E010E0D1CFF8947C
:0201D000FFCF5F
:00000001FF
